{"abi":[{"type":"constructor","inputs":[{"name":"_router","type":"address","internalType":"address"},{"name":"_weth","type":"address","internalType":"address"},{"name":"_usdc","type":"address","internalType":"address"},{"name":"_bankCapInicial","type":"uint256","internalType":"uint256"},{"name":"_limiteRetiroInicial","type":"uint256","internalType":"uint256"}],"stateMutability":"nonpayable"},{"type":"receive","stateMutability":"payable"},{"type":"function","name":"ADMIN_ROLE","inputs":[],"outputs":[{"name":"","type":"bytes32","internalType":"bytes32"}],"stateMutability":"view"},{"type":"function","name":"DEFAULT_ADMIN_ROLE","inputs":[],"outputs":[{"name":"","type":"bytes32","internalType":"bytes32"}],"stateMutability":"view"},{"type":"function","name":"balances","inputs":[{"name":"","type":"address","internalType":"address"}],"outputs":[{"name":"","type":"uint256","internalType":"uint256"}],"stateMutability":"view"},{"type":"function","name":"bankCap","inputs":[],"outputs":[{"name":"","type":"uint256","internalType":"uint256"}],"stateMutability":"view"},{"type":"function","name":"depositarETH","inputs":[{"name":"_minAmountOut","type":"uint256","internalType":"uint256"}],"outputs":[],"stateMutability":"payable"},{"type":"function","name":"depositarToken","inputs":[{"name":"_token","type":"address","internalType":"address"},{"name":"_monto","type":"uint256","internalType":"uint256"},{"name":"_minAmountOut","type":"uint256","internalType":"uint256"}],"outputs":[],"stateMutability":"nonpayable"},{"type":"function","name":"getBankStats","inputs":[],"outputs":[{"name":"cap","type":"uint256","internalType":"uint256"},{"name":"totalEnBoveda","type":"uint256","internalType":"uint256"},{"name":"depositos","type":"uint256","internalType":"uint256"},{"name":"retiros","type":"uint256","internalType":"uint256"}],"stateMutability":"view"},{"type":"function","name":"getRoleAdmin","inputs":[{"name":"role","type":"bytes32","internalType":"bytes32"}],"outputs":[{"name":"","type":"bytes32","internalType":"bytes32"}],"stateMutability":"view"},{"type":"function","name":"getUsdcBalance","inputs":[{"name":"_usuario","type":"address","internalType":"address"}],"outputs":[{"name":"","type":"uint256","internalType":"uint256"}],"stateMutability":"view"},{"type":"function","name":"grantRole","inputs":[{"name":"role","type":"bytes32","internalType":"bytes32"},{"name":"account","type":"address","internalType":"address"}],"outputs":[],"stateMutability":"nonpayable"},{"type":"function","name":"hasRole","inputs":[{"name":"role","type":"bytes32","internalType":"bytes32"},{"name":"account","type":"address","internalType":"address"}],"outputs":[{"name":"","type":"bool","internalType":"bool"}],"stateMutability":"view"},{"type":"function","name":"i_router","inputs":[],"outputs":[{"name":"","type":"address","internalType":"contract IUniswapV2Router02"}],"stateMutability":"view"},{"type":"function","name":"i_usdc","inputs":[],"outputs":[{"name":"","type":"address","internalType":"contract IERC20"}],"stateMutability":"view"},{"type":"function","name":"i_weth","inputs":[],"outputs":[{"name":"","type":"address","internalType":"contract IWETH"}],"stateMutability":"view"},{"type":"function","name":"limiteRetiroPorTx","inputs":[],"outputs":[{"name":"","type":"uint256","internalType":"uint256"}],"stateMutability":"view"},{"type":"function","name":"renounceRole","inputs":[{"name":"role","type":"bytes32","internalType":"bytes32"},{"name":"callerConfirmation","type":"address","internalType":"address"}],"outputs":[],"stateMutability":"nonpayable"},{"type":"function","name":"retirar","inputs":[{"name":"_montoUSDC","type":"uint256","internalType":"uint256"}],"outputs":[],"stateMutability":"nonpayable"},{"type":"function","name":"revokeRole","inputs":[{"name":"role","type":"bytes32","internalType":"bytes32"},{"name":"account","type":"address","internalType":"address"}],"outputs":[],"stateMutability":"nonpayable"},{"type":"function","name":"setBankCap","inputs":[{"name":"_nuevoCap","type":"uint256","internalType":"uint256"}],"outputs":[],"stateMutability":"nonpayable"},{"type":"function","name":"setLimiteRetiroPorTx","inputs":[{"name":"_nuevoLimite","type":"uint256","internalType":"uint256"}],"outputs":[],"stateMutability":"nonpayable"},{"type":"function","name":"supportsInterface","inputs":[{"name":"interfaceId","type":"bytes4","internalType":"bytes4"}],"outputs":[{"name":"","type":"bool","internalType":"bool"}],"stateMutability":"view"},{"type":"function","name":"totalDepositos","inputs":[],"outputs":[{"name":"","type":"uint256","internalType":"uint256"}],"stateMutability":"view"},{"type":"function","name":"totalRetiros","inputs":[],"outputs":[{"name":"","type":"uint256","internalType":"uint256"}],"stateMutability":"view"},{"type":"function","name":"totalUSDCEnBanco","inputs":[],"outputs":[{"name":"","type":"uint256","internalType":"uint256"}],"stateMutability":"view"},{"type":"event","name":"BankCapActualizado","inputs":[{"name":"nuevoCap","type":"uint256","indexed":false,"internalType":"uint256"}],"anonymous":false},{"type":"event","name":"Deposito","inputs":[{"name":"usuario","type":"address","indexed":true,"internalType":"address"},{"name":"tokenIn","type":"address","indexed":true,"internalType":"address"},{"name":"montoIn","type":"uint256","indexed":false,"internalType":"uint256"},{"name":"usdcRecibido","type":"uint256","indexed":false,"internalType":"uint256"}],"anonymous":false},{"type":"event","name":"LimiteRetiroActualizado","inputs":[{"name":"nuevoLimite","type":"uint256","indexed":false,"internalType":"uint256"}],"anonymous":false},{"type":"event","name":"Retiro","inputs":[{"name":"usuario","type":"address","indexed":true,"internalType":"address"},{"name":"montoUSDC","type":"uint256","indexed":false,"internalType":"uint256"}],"anonymous":false},{"type":"event","name":"RoleAdminChanged","inputs":[{"name":"role","type":"bytes32","indexed":true,"internalType":"bytes32"},{"name":"previousAdminRole","type":"bytes32","indexed":true,"internalType":"bytes32"},{"name":"newAdminRole","type":"bytes32","indexed":true,"internalType":"bytes32"}],"anonymous":false},{"type":"event","name":"RoleGranted","inputs":[{"name":"role","type":"bytes32","indexed":true,"internalType":"bytes32"},{"name":"account","type":"address","indexed":true,"internalType":"address"},{"name":"sender","type":"address","indexed":true,"internalType":"address"}],"anonymous":false},{"type":"event","name":"RoleRevoked","inputs":[{"name":"role","type":"bytes32","indexed":true,"internalType":"bytes32"},{"name":"account","type":"address","indexed":true,"internalType":"address"},{"name":"sender","type":"address","indexed":true,"internalType":"address"}],"anonymous":false},{"type":"error","name":"AccessControlBadConfirmation","inputs":[]},{"type":"error","name":"AccessControlUnauthorizedAccount","inputs":[{"name":"account","type":"address","internalType":"address"},{"name":"neededRole","type":"bytes32","internalType":"bytes32"}]},{"type":"error","name":"BankCapExcedido","inputs":[{"name":"actual","type":"uint256","internalType":"uint256"},{"name":"solicitado","type":"uint256","internalType":"uint256"},{"name":"limite","type":"uint256","internalType":"uint256"}]},{"type":"error","name":"DireccionInvalida","inputs":[]},{"type":"error","name":"LimiteRetiroExcedido","inputs":[{"name":"solicitado","type":"uint256","internalType":"uint256"},{"name":"limite","type":"uint256","internalType":"uint256"}]},{"type":"error","name":"MontoCero","inputs":[]},{"type":"error","name":"ReentrancyGuardReentrantCall","inputs":[]},{"type":"error","name":"SafeERC20FailedDecreaseAllowance","inputs":[{"name":"spender","type":"address","internalType":"address"},{"name":"currentAllowance","type":"uint256","internalType":"uint256"},{"name":"requestedDecrease","type":"uint256","internalType":"uint256"}]},{"type":"error","name":"SafeERC20FailedOperation","inputs":[{"name":"token","type":"address","internalType":"address"}]},{"type":"error","name":"SaldoInsuficiente","inputs":[]},{"type":"error","name":"SlippageExcedido","inputs":[]},{"type":"error","name":"TransferenciaFallida","inputs":[]},{"type":"error","name":"UsarFuncionDepositarETH","inputs":[]}],"bytecode":{"object":"0x60e060405234801562000010575f80fd5b5060405162001bf138038062001bf18339810160408190526200003391620001d7565b60017f9b779b17422d0df92223018b32b4d1fa46e071723d6817e2486d003becc55f00556001600160a01b03851615806200007557506001600160a01b038416155b806200008857506001600160a01b038316155b15620000a75760405163598227e360e01b815260040160405180910390fd5b6001600160a01b0380861660805284811660a052831660c05260018290556002819055620000d65f336200010f565b50620001037fa49807205ce4d355092ef5a8a18f56e8913cf4a201fbe287825b095693c21775336200010f565b50505050505062000230565b5f828152602081815260408083206001600160a01b038516845290915281205460ff16620001b2575f838152602081815260408083206001600160a01b03861684529091529020805460ff19166001179055620001693390565b6001600160a01b0316826001600160a01b0316847f2f8788117e7eff1d82e926ec794901d17c78024a50270940304540a733656f0d60405160405180910390a4506001620001b5565b505f5b92915050565b80516001600160a01b0381168114620001d2575f80fd5b919050565b5f805f805f60a08688031215620001ec575f80fd5b620001f786620001bb565b94506200020760208701620001bb565b93506200021760408701620001bb565b6060870151608090970151959894975095949392505050565b60805160a05160c0516118fc620002f55f395f81816104be015281816108d50152818161093401528181610a4e01528181610b5901528181610ced01528181610d4c01528181610e66015261101801525f81816102960152818161069201528181610745015281816107c501528181610819015281816108820152610ad401525f81816102f60152818161071a015281816107e70152818161083b015281816109b701528181610bb401528181610c3f01528181610c730152610dcf01526118fc5ff3fe60806040526004361061014a575f3560e01c806391d14854116100b3578063c8aff86a1161006d578063c8aff86a14610426578063d547741f14610445578063e261bbc514610464578063e8b1298f14610479578063ecbea24d14610498578063ff40e1d0146104ad575f80fd5b806391d148541461037f5780639ed9c26d1461039e578063a217fddf146103b3578063a3353a12146103c6578063a472b2d9146103d9578063c6e8e38c146103ee575f80fd5b806336568abe1161010457806336568abe146102665780634dbe7e92146102855780634ffb8f9f146102d0578063581bdd16146102e557806369b49adc1461031857806375b238fc1461034c575f80fd5b806301ffc9a71461016c5780630e45b1cd146101a0578063248a9ca3146101c157806327e235e3146101fd5780632f2ff15d1461022857806331eab30f14610247575f80fd5b3661016857604051637c82e3d360e01b815260040160405180910390fd5b5f80fd5b348015610177575f80fd5b5061018b610186366004611618565b6104e0565b60405190151581526020015b60405180910390f35b3480156101ab575f80fd5b506101bf6101ba366004611646565b610516565b005b3480156101cc575f80fd5b506101ef6101db366004611646565b5f9081526020819052604090206001015490565b604051908152602001610197565b348015610208575f80fd5b506101ef610217366004611678565b60046020525f908152604090205481565b348015610233575f80fd5b506101bf610242366004611691565b61057d565b348015610252575f80fd5b506101bf610261366004611646565b6105a7565b348015610271575f80fd5b506101bf610280366004611691565b610606565b348015610290575f80fd5b506102b87f000000000000000000000000000000000000000000000000000000000000000081565b6040516001600160a01b039091168152602001610197565b3480156102db575f80fd5b506101ef60025481565b3480156102f0575f80fd5b506102b87f000000000000000000000000000000000000000000000000000000000000000081565b348015610323575f80fd5b506101ef610332366004611678565b6001600160a01b03165f9081526004602052604090205490565b348015610357575f80fd5b506101ef7fa49807205ce4d355092ef5a8a18f56e8913cf4a201fbe287825b095693c2177581565b34801561038a575f80fd5b5061018b610399366004611691565b61063e565b3480156103a9575f80fd5b506101ef60065481565b3480156103be575f80fd5b506101ef5f81565b6101bf6103d4366004611646565b610666565b3480156103e4575f80fd5b506101ef60055481565b3480156103f9575f80fd5b50600154600354600554600654604080519485526020850193909352918301526060820152608001610197565b348015610431575f80fd5b506101bf6104403660046116bb565b610b19565b348015610450575f80fd5b506101bf61045f366004611691565b610f0d565b34801561046f575f80fd5b506101ef60035481565b348015610484575f80fd5b506101bf610493366004611646565b610f31565b3480156104a3575f80fd5b506101ef60015481565b3480156104b8575f80fd5b506102b87f000000000000000000000000000000000000000000000000000000000000000081565b5f6001600160e01b03198216637965db0b60e01b148061051057506301ffc9a760e01b6001600160e01b03198316145b92915050565b7fa49807205ce4d355092ef5a8a18f56e8913cf4a201fbe287825b095693c217756105408161108b565b60028290556040518281527f4c60c55993e044a21c8da264b41071cb650db33ec9b25fe3e9dc8047d0ccebaf906020015b60405180910390a15050565b5f828152602081905260409020600101546105978161108b565b6105a18383611095565b50505050565b7fa49807205ce4d355092ef5a8a18f56e8913cf4a201fbe287825b095693c217756105d18161108b565b60018290556040518281527f2d168cbd60b6bc8f01f2202130dea4fdcdbb13b4a95f79a2febd1249e004828890602001610571565b6001600160a01b038116331461062f5760405163334bd91960e11b815260040160405180910390fd5b6106398282611124565b505050565b5f918252602082815260408084206001600160a01b0393909316845291905290205460ff1690565b61066e61118d565b345f819003610690576040516385ea51af60e01b815260040160405180910390fd5b7f00000000000000000000000000000000000000000000000000000000000000006001600160a01b031663d0e30db0826040518263ffffffff1660e01b81526004015f604051808303818588803b1580156106e9575f80fd5b505af11580156106fb573d5f803e3d5ffd5b5050604051636eb1769f60e11b81523060048201526001600160a01b037f0000000000000000000000000000000000000000000000000000000000000000811660248301525f94507f000000000000000000000000000000000000000000000000000000000000000016925063dd62ed3e9150604401602060405180830381865afa15801561078c573d5f803e3d5ffd5b505050506040513d601f19601f820116820180604052508101906107b091906116eb565b9050801561080c5761080c6001600160a01b037f0000000000000000000000000000000000000000000000000000000000000000167f0000000000000000000000000000000000000000000000000000000000000000836111a8565b6108606001600160a01b037f0000000000000000000000000000000000000000000000000000000000000000167f000000000000000000000000000000000000000000000000000000000000000084611262565b6040805160028082526060820183525f926020830190803683370190505090507f0000000000000000000000000000000000000000000000000000000000000000815f815181106108b3576108b3611716565b60200260200101906001600160a01b031690816001600160a01b0316815250507f00000000000000000000000000000000000000000000000000000000000000008160018151811061090757610907611716565b6001600160a01b0392831660209182029290920101526040516370a0823160e01b81523060048201525f917f000000000000000000000000000000000000000000000000000000000000000016906370a0823190602401602060405180830381865afa158015610979573d5f803e3d5ffd5b505050506040513d601f19601f8201168201806040525081019061099d91906116eb565b6040516338ed173960e01b81529091506001600160a01b037f000000000000000000000000000000000000000000000000000000000000000016906338ed1739906109f4908790899087903090429060040161172a565b5f604051808303815f875af1158015610a0f573d5f803e3d5ffd5b505050506040513d5f823e601f3d908101601f19168201604052610a36919081019061179b565b506040516370a0823160e01b81523060048201525f907f00000000000000000000000000000000000000000000000000000000000000006001600160a01b0316906370a0823190602401602060405180830381865afa158015610a9b573d5f803e3d5ffd5b505050506040513d601f19601f82011682018060405250810190610abf91906116eb565b90505f610acc8383611868565b9050610afa337f000000000000000000000000000000000000000000000000000000000000000088846112e9565b505050505050610b1660015f805160206118a783398151915255565b50565b610b2161118d565b815f03610b41576040516385ea51af60e01b815260040160405180910390fd5b610b566001600160a01b0384163330856113d4565b5f7f00000000000000000000000000000000000000000000000000000000000000006001600160a01b0316846001600160a01b031603610b97575081610eea565b604051636eb1769f60e11b81523060048201526001600160a01b037f0000000000000000000000000000000000000000000000000000000000000000811660248301525f919086169063dd62ed3e90604401602060405180830381865afa158015610c04573d5f803e3d5ffd5b505050506040513d601f19601f82011682018060405250810190610c2891906116eb565b90508015610c6457610c646001600160a01b0386167f0000000000000000000000000000000000000000000000000000000000000000836111a8565b610c986001600160a01b0386167f000000000000000000000000000000000000000000000000000000000000000086611262565b6040805160028082526060820183525f9260208301908036833701905050905085815f81518110610ccb57610ccb611716565b60200260200101906001600160a01b031690816001600160a01b0316815250507f000000000000000000000000000000000000000000000000000000000000000081600181518110610d1f57610d1f611716565b6001600160a01b0392831660209182029290920101526040516370a0823160e01b81523060048201525f917f000000000000000000000000000000000000000000000000000000000000000016906370a0823190602401602060405180830381865afa158015610d91573d5f803e3d5ffd5b505050506040513d601f19601f82011682018060405250810190610db591906116eb565b6040516338ed173960e01b81529091506001600160a01b037f000000000000000000000000000000000000000000000000000000000000000016906338ed173990610e0c908990899087903090429060040161172a565b5f604051808303815f875af1158015610e27573d5f803e3d5ffd5b505050506040513d5f823e601f3d908101601f19168201604052610e4e919081019061179b565b506040516370a0823160e01b81523060048201525f907f00000000000000000000000000000000000000000000000000000000000000006001600160a01b0316906370a0823190602401602060405180830381865afa158015610eb3573d5f803e3d5ffd5b505050506040513d601f19601f82011682018060405250810190610ed791906116eb565b9050610ee38282611868565b9450505050505b610ef6338585846112e9565b5061063960015f805160206118a783398151915255565b5f82815260208190526040902060010154610f278161108b565b6105a18383611124565b610f3961118d565b805f03610f59576040516385ea51af60e01b815260040160405180910390fd5b335f9081526004602052604090205480821115610f89576040516328a4157b60e11b815260040160405180910390fd5b600254821115610fc357600254604051636570e4e560e01b8152610fba918491600401918252602082015260400190565b60405180910390fd5b610fcd8282611868565b335f9081526004602052604081209190915560038054849290610ff1908490611868565b909155505060068054905f6110058361187b565b9091555061103f90506001600160a01b037f000000000000000000000000000000000000000000000000000000000000000016338461140a565b60405182815233907febdddb82f24ed849145a8f144818f7d383a31047a4a7f30b928c65100f9b8eab9060200160405180910390a250610b1660015f805160206118a783398151915255565b610b16813361143f565b5f6110a0838361063e565b61111d575f838152602081815260408083206001600160a01b03861684529091529020805460ff191660011790556110d53390565b6001600160a01b0316826001600160a01b0316847f2f8788117e7eff1d82e926ec794901d17c78024a50270940304540a733656f0d60405160405180910390a4506001610510565b505f610510565b5f61112f838361063e565b1561111d575f838152602081815260408083206001600160a01b0386168085529252808320805460ff1916905551339286917ff6391f5c32d9c69d2a47ea670b442974b53935d1edc7fd64eb21e047a839171b9190a4506001610510565b61119561147c565b60025f805160206118a783398151915255565b604051636eb1769f60e11b81523060048201526001600160a01b0383811660248301525f919085169063dd62ed3e90604401602060405180830381865afa1580156111f5573d5f803e3d5ffd5b505050506040513d601f19601f8201168201806040525081019061121991906116eb565b9050818110156112555760405163e570110f60e01b81526001600160a01b03841660048201526024810182905260448101839052606401610fba565b6105a184848484036114ad565b604051636eb1769f60e11b81523060048201526001600160a01b0383811660248301525f919085169063dd62ed3e90604401602060405180830381865afa1580156112af573d5f803e3d5ffd5b505050506040513d601f19601f820116820180604052508101906112d391906116eb565b90506105a184846112e48585611893565b6114ad565b5f816003546112f89190611893565b905060015481111561133257600354600154604051623dc72360e91b81526004810192909252602482018490526044820152606401610fba565b60038190556001600160a01b0385165f908152600460205260408120805484929061135e908490611893565b909155505060058054905f6113728361187b565b9190505550836001600160a01b0316856001600160a01b03167f55b117b60ba8cb6c317e6fce17597e3bbe98fd79d7b2856266e42b255a7f834a85856040516113c5929190918252602082015260400190565b60405180910390a35050505050565b6113e28484848460016114ff565b6105a157604051635274afe760e01b81526001600160a01b0385166004820152602401610fba565b611417838383600161156c565b61063957604051635274afe760e01b81526001600160a01b0384166004820152602401610fba565b611449828261063e565b6114785760405163e2517d3f60e01b81526001600160a01b038216600482015260248101839052604401610fba565b5050565b5f805160206118a7833981519152546002036114ab57604051633ee5aeb560e01b815260040160405180910390fd5b565b6114b98383835f6115ce565b610639576114ca83835f60016115ce565b6114f257604051635274afe760e01b81526001600160a01b0384166004820152602401610fba565b61141783838360016115ce565b6040516323b872dd60e01b5f8181526001600160a01b038781166004528616602452604485905291602083606481808c5af1925060015f5114831661155b57838315161561154f573d5f823e3d81fd5b5f883b113d1516831692505b604052505f60605295945050505050565b60405163a9059cbb60e01b5f8181526001600160a01b038616600452602485905291602083604481808b5af1925060015f511483166115c25783831516156115b6573d5f823e3d81fd5b5f873b113d1516831692505b60405250949350505050565b60405163095ea7b360e01b5f8181526001600160a01b038616600452602485905291602083604481808b5af1925060015f511483166115c25783831516156115b6573d5f823e3d81fd5b5f60208284031215611628575f80fd5b81356001600160e01b03198116811461163f575f80fd5b9392505050565b5f60208284031215611656575f80fd5b5035919050565b80356001600160a01b0381168114611673575f80fd5b919050565b5f60208284031215611688575f80fd5b61163f8261165d565b5f80604083850312156116a2575f80fd5b823591506116b26020840161165d565b90509250929050565b5f805f606084860312156116cd575f80fd5b6116d68461165d565b95602085013595506040909401359392505050565b5f602082840312156116fb575f80fd5b5051919050565b634e487b7160e01b5f52604160045260245ffd5b634e487b7160e01b5f52603260045260245ffd5b5f60a08201878352602087602085015260a0604085015281875180845260c0860191506020890193505f5b8181101561177a5784516001600160a01b031683529383019391830191600101611755565b50506001600160a01b03969096166060850152505050608001529392505050565b5f60208083850312156117ac575f80fd5b825167ffffffffffffffff808211156117c3575f80fd5b818501915085601f8301126117d6575f80fd5b8151818111156117e8576117e8611702565b8060051b604051601f19603f8301168101818110858211171561180d5761180d611702565b60405291825284820192508381018501918883111561182a575f80fd5b938501935b828510156118485784518452938501939285019261182f565b98975050505050505050565b634e487b7160e01b5f52601160045260245ffd5b8181038181111561051057610510611854565b5f6001820161188c5761188c611854565b5060010190565b808201808211156105105761051061185456fe9b779b17422d0df92223018b32b4d1fa46e071723d6817e2486d003becc55f00a2646970667358221220baee4f9d80465c1faca70dc0a0ae24cbf44dbfb49617dabdf34222445edc8dc864736f6c63430008180033","linkReferences":{}},"methodIdentifiers":{"ADMIN_ROLE()":"75b238fc","DEFAULT_ADMIN_ROLE()":"a217fddf","balances(address)":"27e235e3","bankCap()":"ecbea24d","depositarETH(uint256)":"a3353a12","depositarToken(address,uint256,uint256)":"c8aff86a","getBankStats()":"c6e8e38c","getRoleAdmin(bytes32)":"248a9ca3","getUsdcBalance(address)":"69b49adc","grantRole(bytes32,address)":"2f2ff15d","hasRole(bytes32,address)":"91d14854","i_router()":"581bdd16","i_usdc()":"ff40e1d0","i_weth()":"4dbe7e92","limiteRetiroPorTx()":"4ffb8f9f","renounceRole(bytes32,address)":"36568abe","retirar(uint256)":"e8b1298f","revokeRole(bytes32,address)":"d547741f","setBankCap(uint256)":"31eab30f","setLimiteRetiroPorTx(uint256)":"0e45b1cd","supportsInterface(bytes4)":"01ffc9a7","totalDepositos()":"a472b2d9","totalRetiros()":"9ed9c26d","totalUSDCEnBanco()":"e261bbc5"},"id":33}